:020000040800F2
:10000000D0320020750200088D0A00086909000836
:100010003D0A00083D070008D11C00080000000050
:10002000000000000000000000000000DD010008EA
:100030003F070008000000002102000869140008C2
:100040008F0200088F0200088F0200088F0200084C
:100050008F0200088F0200088F0200088F0200083C
:100060008F0200088F0200088F0200088F0200082C
:100070008F0200088F0200088F0200088F0200081C
:100080008F0200088F0200088F0200088F0200080C
:100090008F0200088F0200088F0200088F020008FC
:1000A0008F0200088F0200088F0200088F020008EC
:1000B0008F020008B51500088F0200088F020008A3
:1000C0008F0200088F0200088F0200088F020008CC
:1000D0008F020008FD1A0008011B00088F020008AB
:1000E0008F0200088F0200088F0200088F020008AC
:1000F0008F0200088F0200088F0200088F0200089C
:100100008F0200088F0200088F0200088F0200088B
:100110008F0200088F0200088F0200088F0200087B
:100120008F0200088F0200088F0200088F0200086B
:1001300000F002F800F042F80AA090E8000C8244B7
:100140008344AAF10107DA4501D100F037F8AFF294
:10015000090EBAE80F0013F0010F18BFFB1A43F0A5
:10016000010318475C4800007C480000103A24BF97
:1001700078C878C1FAD8520724BF30C830C144BF0C
:1001800004680C607047000000230024002500264E
:10019000103A28BF78C1FBD8520728BF30C148BFEA
:1001A0000B607047642900F0F180732900F0FE8134
:1001B000002070471FB51FBD10B510BD00F08BFAB1
:1001C0001146FFF7F7FF01F005FE00F0A9FA03B4AE
:1001D000FFF7F2FF03BC01F07CFD0000224B196821
:1001E0000868B0E8F00F80F30988BFF36F8F4FF015
:1001F000000080F311884EF00D0E704700000000E3
:1002000006480068006880F3088862B661B6BFF3EC
:100210004F8FBFF36F8F00DF00BF00BF08ED00E01E
:10022000EFF30980BFF36F8F0F4B1A6820E9F00FCF
:10023000106008B54FF0500080F31188BFF34F8F66
:10024000BFF36F8F02F0B6FF4FF0000080F311880C
:10025000BDE8084019680868B0E8F00F80F3098825
:10026000BFF36F8F704700BF4C000020EFF3058095
:10027000704700000948804709480047FEE7FEE74D
:10028000FEE7FEE7FEE7FEE7FEE7FEE7FEE7FEE746
:1002900004480549054A064B704700007D140008D4
:1002A00031010008D02C0020D0320020D02E0020B8
:1002B000D02E0020704700000FB4044910B503AAE7
:1002C000029800F077F910BC5DF814FB34000020B0
:1002D0002DE9F0410E460446002020622046E168E8
:1002E000884730B3252805D0D4E901219047206AFA
:1002F000401CF2E7E168204600278847050018D037
:10030000A5F14100192802D820354FF40067324684
:10031000294620462760FFF745FF40B1012804D059
:10032000F61D26F007060836D8E7361DD6E728461C
:10033000DAE7206ABDE8F08170B50C460546012A6F
:1003400005D02878800600D5EA69002302E0012361
:1003500005E05B1C934202D2E05C0028F9D1A86959
:10036000E618C01AA861286A184428622846AFF324
:10037000008004E0D5E9012114F8010B9047B44254
:10038000F8D32846AFF3008070BD00002DE9F0419E
:100390000646002410687529314616A510D0AFF323
:1003A0000080002802DA404213A507E031688A077E
:1003B00001D512A502E0490704D511A5012401E0E9
:1003C000AFF3008000210A2206F1240709E0B0FB08
:1003D000F2FCB0FBF2F302FB1C00303078541846FC
:1003E000491C0028F3D123462A463046BDE8F04197
:1003F00000F059B8000000002D0000002B000000A4
:1004000020000000032A40F2308010F0030C00F0BE
:10041000158011F8013BBCF1020F624498BF11F83E
:1004200001CB00F8013B38BF11F8013BA2F10402F7
:1004300098BF00F801CB38BF00F8013B11F003036F
:1004400000F0CA80083AC0F0088051F8043B083A2E
:1004500051F804CBA0E80810F5E7121D5CBF51F875
:10046000043B40F8043BAFF30080D20724BF11F8EF
:10047000013B11F801CB48BF11F8012B24BF00F854
:10048000013B00F801CB48BF00F8012B704702F098
:10049000FF0343EA032242EA024200F0D1B8704768
:1004A0007047704770472DE9F0470D4699469246D0
:1004B000044600F124080168880604D5E06921F0AB
:1004C0001001216000E00120A84201DD471B00E08F
:1004D0000027A1697A1902EB0900081AA0612078A7
:1004E000C00602D42046AFF30080002608E0D4E91D
:1004F00001211AF806009047206A401C761C2062F1
:100500004E45F4DB2078C0060AD52046AFF30080C4
:1005100006E0D4E9012130209047206A401C206287
:10052000381EA7F10107F4DC07E0D4E9012118F82F
:1005300005009047206A401C2062281EA5F1010595
:10054000F3DC2046AFF300802078000602D50220BD
:10055000BDE8F0870120FBE701694A1C02610878C9
:10056000704700B58FB0CDE90131002105910549F3
:100570007944CDE9031011466846FFF7A9FE0FB094
:1005800000BD0000E5FFFFFF10B5436913B1AFF3F5
:10059000008001E0FFF7D0FE012010BD127800F1CD
:1005A00024010A7000224A700122EDE711684FF021
:1005B000FF32E9E7074B70B50D467B44FFF7D1FFEB
:1005C0000446284600F05CF810B14FF0FF3070BDD3
:1005D000204670BDCB17000010B5203AC0F00B804C
:1005E000B1E81850203AA0E81850B1E81850A0E837
:1005F0001850BFF4F5AF5FEA027C24BFB1E8185091
:10060000A0E8185044BF18C918C0BDE810405FEA00
:10061000827C24BF51F8043B40F8043B08BF70477C
:10062000D20728BF31F8023B48BF11F8012B28BF81
:1006300020F8023B48BF00F8012B70474FF0000242
:100640000429C0F0128010F0030C00F01F80CCF1E0
:10065000040CBCF1020F18BF00F8012BA8BF20F852
:10066000022BA1EB0C0100F011B85FEAC17C24BFA2
:1006700000F8012B00F8012B48BF00F8012B704750
:10068000007B00F0800070474FF0000200B5134679
:1006900094469646203922BFA0E80C50A0E80C50A2
:1006A000B1F12001BFF4F7AF090728BFA0E80C5053
:1006B00048BF0CC05DF804EB890028BF40F8042B4C
:1006C00008BF704748BF20F8022B11F0804F18BFB9
:1006D00000F8012B7047754600F02CF8AE46050077
:1006E0006946534620F00700854618B020B5FFF74D
:1006F000CFFDBDE820404FF000064FF000074FF05F
:1007000000084FF0000B21F00701AC46ACE8C0092F
:10071000ACE8C009ACE8C009ACE8C0098D46704738
:1007200010B50446AFF300802046BDE81040FFF747
:100730004EBD0000004870476C2C0020FEE770475B
:1007400070B5054D284600F09BFF04B200212846F5
:1007500001F0DEF8204670BD0008004030B587B0DB
:100760000121042000F044FD0121082000F04CFD8F
:1007700048208DF81B00C020ADF8180003208DF82C
:100780001A0006A91A4800F091F80024ADF81240AA
:100790004FF6FF70174DADF80E40ADF81000ADF8F4
:1007A0000C408DF8144003A9284601F0DBF8684698
:1007B00001F00AF8ADF800400F24ADF80840694692
:1007C000284600F06BFF0420ADF80000ADF80840AB
:1007D0006946284600F062FF00231A460321284696
:1007E00000F035FF0121284600F01CFF07B030BDA6
:1007F000000C01400008004070B54FF080452846CD
:1008000000F03EFF04B20021284601F081F82046A6
:1008100070BD000030B5012187B0084600F0E8FC4B
:100820000121042000F0F0FC48208DF81B0003207B
:10083000ADF818008DF81A0006A91B4800F036F82C
:100840000024ADF812404FF6FF70ADF80E40ADF841
:1008500010004FF08045ADF80C408DF8144003A90E
:10086000284601F07FF8684600F0AEFFADF8004082
:100870000F24ADF808406946284600F00FFF042019
:10088000ADF80000ADF808406946284600F006FFC4
:1008900000231A460321284600F0D9FE01212846EC
:1008A00000F0C0FE07B030BD00080140F0B5CC78C4
:1008B000002204F00F03E40601D58C7823430C7862
:1008C0004FF00F0C14F0FF0F4FF0010E1BD0056816
:1008D0000E880EFA02F42640A64210D196000CFAB9
:1008E00006F725EA070703FA06F5CE783D43282EDA
:1008F00002D0482E02D002E0446100E00461521CA4
:10090000082AE5D305600A88FF2A1CD9446800221A
:1009100002F108060EFA06F50E882E40AE420ED100
:1009200096000CFA06F7BC4303FA06F7CE783C4370
:10093000282E00D14561CE78482E00D10561521C89
:10094000082AE5D34460F0BD0246002092680A42BE
:1009500000D00120704741617047016170470AB1C2
:100960000161704741617047FEE7000070B50C4EB1
:100970004FF40045002429463046FFF7E5FF60B9F3
:10098000142001F0CBF929463046FFF7DDFF00289F
:10099000F9D0142001F0C2F90124204670BD0000F6
:1009A000000C014008B50121082000F02DFC482072
:1009B0008DF803004FF40040ADF8000003208DF8DF
:1009C000020069460148FFF771FF08BD000C0140B5
:1009D0004FF480510148FFF7B7BF00000008014005
:1009E0004FF400610148FFF7AFBF0000000801406D
:1009F00038B50121082000F007FC42F22000ADF8D4
:100A0000000010208DF803000320084C8DF8020030
:100A100069462046FFF74AFF20212046FFF79DFF49
:100A200061142046FFF799FF38BD0000000C01401B
:100A300002210148FFF788BF000C0140FEE70000DB
:100A400038B50121042000F0DFFB10208DF80300F1
:100A5000F020ADF8000003200B4C8DF80200694631
:100A60002046FFF723FF10212046FFF774FF2021C7
:100A70002046FFF772FF40212046FFF76CFF8021E0
:100A80002046FFF76AFF38BD0008014070470000AC
:100A900030B50F23C27801780125F2B1144A1268EB
:100AA00001F1E02102F4E062C2F5E062120AC2F153
:100AB0000404D3404278A24084781C4014432201AD
:100AC00081F80024007800F01F018D40400980006B
:100AD00000F1E020C0F8005130BD01F01F0085405A
:100AE0004809800000F1E020C0F8805130BD0000CE
:100AF0000CED00E00249084302490860704700001D
:100B00000000FA050CED00E070B500250021284634
:100B100000F0F5F80024002000F085F9641CE4B230
:100B2000802CF8D36D1CEDB2082DEFD370BD000002
:100B3000F8B50121082000F067FB14208DF80300B0
:100B400003208DF802000D4E4FF48074ADF8004084
:100B500069463046FFF7AAFE6500ADF800506946C9
:100B60003046FFF7A3FE012221463046FFF7F7FE8D
:100B7000012229463046FFF7F2FEF8BD000C014085
:100B80002DE9F047144E002407464FF080084FF43B
:100B90000079B51528FA04F23A4049463046FFF785
:100BA000DEFE012229463046FFF7D9FE0022294603
:100BB0003046FFF7D4FE641CE4B2082CEAD30122CD
:100BC00029463046FFF7CBFE29463046BDE8F047C0
:100BD0000022FFF7C4BE0000000C014070B50122E6
:100BE0000B4D540221462846FFF7B9FE012216029A
:100BF00031462846FFF7B3FE002221462846FFF77C
:100C0000AEFE31462846BDE870400022FFF7A7BE81
:100C1000000C014070B50A4D4FF4007400222146CB
:100C20002846FFF79CFE012211022846FFF797FE97
:100C300021462846BDE870400122FFF790BE000023
:100C4000000C014010B500214FF47A720020401CC6
:100C50009042FCD3491C9142F8D3FFF769FFAE20C4
:100C600000F0D0F8D52000F0CDF8802000F0CAF8D0
:100C7000A82000F0C7F83F2000F0C4F8D32000F00F
:100C8000C1F8002000F0BEF8402000F0BBF8A12021
:100C900000F0B8F8C82000F0B5F8DA2000F0B2F89B
:100CA000122000F0AFF8812000F0ACF8CF2000F067
:100CB000A9F8D92000F0A6F8F12000F0A3F8DB2075
:100CC00000F0A0F8302000F09DF8A42000F09AF881
:100CD000A62000F097F88D2000F094F8142000F082
:100CE00091F8AF2000F08EF8BDE81040FFF70CBF80
:100CF0000346012000E05843491EFCD2704710B55E
:100D00000C4640F0B00000F07DF8102040EA1410CE
:100D100000F078F804F00F00BDE8104000F072B861
:100D20002DE9F0410746CE004000083E801E1546E2
:100D30004FF0FF38F1B2C0B2FFF7E1FF11480024D5
:100D400000EB05152819A0F5805090F8000E00F072
:100D50006AF8641CE4B2082CF4D308EB4700F1B243
:100D6000C0B2FFF7CCFF00242819A0F5805090F8FE
:100D7000080E00F058F8641CE4B2082CF4D3BDE867
:100D8000F0810000CE4300082DE9F0471E46150013
:100D90000F46814603D42B22FFF7C2FF03E02D222A
:100DA000FFF7BEFF6D4200244FF00A0813E0311B2D
:100DB0000A20491EFFF79CFFB5FBF0F1B1FBF8F2EA
:100DC00008FB12123819401CC1B248463032FFF7F6
:100DD000A7FF641CE4B2B442E9D3BDE8F0872DE973
:100DE000F04115460E460746002406E03019C1B210
:100DF0003846FFF795FF641CE4B22A5D002AF5D15E
:100E0000BDE8F08110B50446FFF7E8FE7820FFF753
:100E1000B7FE0020FFF7B4FE2046FFF7B1FEBDE8A5
:100E20001040FFF7F7BE10B50446FFF7D7FE782055
:100E3000FFF7A6FE4020FFF7A3FE2046FFF7A0FE27
:100E4000BDE81040FFF7E6BE2DE9F041314CD4E992
:100E50000A0103F047FAE0630546266B294630464F
:100E600003F042F90746A0642946206C02F084FF93
:100E700005462064D4E90D0102F0ECFF314603F091
:100E800033F9294603F030F901466064384602F030
:100E900073FF214902F070FF0546B4F85000643832
:100EA00003F0D6F8294603F0EBF805D2B4F8500069
:100EB000643803F0CDF80546B4F85000C0F1640082
:100EC00003F0C6F8294603F0DBF906D2B4F8500067
:100ED000C0F1640003F0BCF80546104EB5F5000FF4
:100EE00005DB80213046FFF736FD402104E040213C
:100EF0003046FFF730FD80213046FFF72EFD15F11B
:100F0000FF4F02D2E564BDE8F08185F00040E06467
:100F1000F9E70000C000002000007A44000801400A
:100F20002DE9F041314CD4E9000103F0DBF96061B7
:100F30000546A6682946304603F0D6F807462062E3
:100F40002946A06902F018FF0546A061D4E9030113
:100F500002F080FF314603F0C7F8294603F0C4F8D9
:100F60000146E061384602F007FF214902F004FF24
:100F70000546B4F85000643803F06AF8294603F0D7
:100F80007FF805D2B4F85000643803F061F80546E4
:100F9000B4F85000C0F1640003F05AF8294603F099
:100FA0006FF906D2B4F85000C0F1640003F050F8B5
:100FB0000546104EB5F5000F05DB20213046FFF742
:100FC000CAFC102104E010213046FFF7C4FC2021A8
:100FD0003046FFF7C2FC15F1FF4F02D26562BDE853
:100FE000F08185F000406062F9E70000C000002059
:100FF00000007A440008014010B5094800220B4B5C
:10100000026009490361074C8262C0E9024104633E
:10101000C0E90D134FF4E151A0F8501010BD0000CD
:10102000C00000200000FA430000964400247449E8
:1010300030B5012189B0C80200F0E6F80121042092
:1010400000F0E2F818208DF81F004001ADF81C00F8
:1010500003208DF81E0007A91B48FFF727FC1B4D36
:10106000284600F0C1FB0024ADF8164041F61F40B1
:10107000ADF81240ADF81400ADF810408DF81840EE
:1010800004A9284600F06EFC684600F033FC60209E
:10109000ADF800000120ADF80200ADF80840ADF851
:1010A00006406946284600F0A5FB6946284600F040
:1010B000E1FB0121284600F0BFFA0121284600F09B
:1010C000B1FA09B030BD000000080140002C014019
:1010D0000146014800F018BC002C014001460148BF
:1010E00000F014BC002C014070B5FFF779FC344EC1
:1010F000344C70B9FFF76CFC01280AD1FFF798FC5B
:10110000012806D100F064F8012802D100F068F847
:1011100020B1FFF765FC2C4D10B10FE0266028E0F0
:10112000FFF756FC50B9FFF783FC012806D100F009
:101130004FF8012802D100F053F818B1FFF750FC26
:1011400018B110E02660A56270BDFFF741FC0128D0
:1011500009D1FFF76DFC012805D100F039F810B96D
:1011600000F03EF848B3FFF73BFC184E012802D0D0
:101170000EE0A66270BDFFF72BFC012808D1FFF737
:1011800057FC28B900F024F810B900F029F8A0B1F4
:10119000FFF726FC0028EDD1FFF71AFC0028E9D163
:1011A000FFF746FC0028E5D100F012F80128E1D154
:1011B00000F016F80128C5D070BD2560D9E7000001
:1011C0000000C841C00000200000A04000000C4208
:1011D0004FF480510148FFF7B7BB0000000C0140FD
:1011E0004FF480410148FFF7AFBB0000000C014005
:1011F000044A0029D16901D0014300E08143D16153
:101200007047000000100240044A0029916901D093
:10121000014300E0814391617047000000100240EB
:1012200030B5204A5168204B11F00C0103D004293D
:1012300001D0082901D0036012E05168536801F41D
:1012400070114FF0020413F4803F04EB914102D07F
:1012500053689B0301D5154B00E0134B59430160C4
:1012600051680F2303EA1111114B5C5C0168E140E6
:1012700041605468072505EA14241C5D21FA04F432
:101280008460546805EAD4241B5DD940C16052686B
:10129000032303EA9232064B1B1F9A5CB1FBF2F167
:1012A000016130BD0010024000127A0000093D00CB
:1012B0003C00002030B5012187B04804FFF798FFBB
:1012C00001210420FFF7A0FF18208DF8130004204F
:1012D000ADF81000204D03248DF8124004A92846D3
:1012E000FFF7E4FA48218DF813100820ADF810003C
:1012F0008DF8124004A92846FFF7D8FA4FF416508B
:10130000009000200C21ADF80A10ADF80600134C37
:10131000ADF80C00ADF80800ADF8040069462046B1
:1013200000F078FC012240F22551204600F05AFCE2
:1013300026208DF8140001218DF817108DF8151056
:101340008DF8161005A8FFF7A3FB0121204600F039
:1013500019FC07B030BD0000000801400044004007
:1013600010B5064C0146204600F0AEFC8021204618
:1013700000F012FC0028F9D010BD0000004400402D
:1013800070B50546002403E0FFF7EAFF641CE4B2F1
:10139000285D0028F8D170BD0CB5002226480092C7
:1013A0000192016841F4803101604FF4A06301684B
:1013B00001F4003101910099491C0091019911B982
:1013C00000999942F3D10168890333D50121019134
:1013D0001A490A6842F010020A600A6822F0030201
:1013E0000A600A6842F002020A604168416041688E
:1013F0004160416841F480614160416821F47C11A1
:101400004160416841F4E8114160016841F0807138
:10141000016001688901FCD5416821F00301416048
:10142000416841F0020141604168C1F38101022934
:10143000FAD10CBD01920CBD001002400020024008
:10144000024800210160816270470000C000002056
:101450004FF0E0210428086903D020F0040008615F
:10146000704740F00400FAE710B502F029FA0128AD
:1014700003D0BDE8104001F017BF10BD0F4810B5F4
:10148000016841F00101016041680D4A114041606D
:1014900001680C4A11400160016821F4802101605B
:1014A000416821F4FE0141604FF41F018160FFF7A4
:1014B00073FF05494FF00060086010BD0010024046
:1014C0000000FFF8FFFFF6FE08ED00E070B5048CA9
:1014D00024F001040484058B048C4FF6FF7606EAA1
:1014E0000313134325F0F3050E4A2B4390420ED00D
:1014F0000D4A90420BD0B0F1804F08D00B4A904279
:1015000005D00B4A904202D00A4A904202D124F000
:10151000020201E024F00A020A4342F001010383BF
:10152000018470BD002C01400034014000040040E3
:1015300000080040000C0040F0B5048C24F01004BA
:101540000484078B048C4FF6FF7527F4734705EA74
:1015500003333B4305EA02221A43114B05EA011605
:1015600098420ED00F4B98420BD0B0F1804F08D06C
:101570000D4B984205D00D4B984202D00C4B98422F
:1015800005D124F02001314341F0100104E024F0A2
:10159000A0030B4343F0100102830184F0BD00005F
:1015A000002C0140003401400004004000080040CD
:1015B000000C004070B5154D0121284600F062F87E
:1015C000012822D1FFF718F902F042FD104C6060AB
:1015D000FFF7A6FC606A02F01BFD80B2FFF778FD02
:1015E000FFF7AEF802F034FDE062FFF72DFCE06C8F
:1015F00002F00EFD80B2FFF771FD0121284600F0D8
:101600000EF804490888401C088070BD00040040A2
:10161000C000002000000020C94301827047C94378
:10162000018270470029018802D041F0010101E0E8
:1016300021F0010101807047002930F8441F02D0D9
:1016400041F4004101E0C1F30E010180704770B523
:101650000589048B068C25F007050D434FF6FC41E8
:101660000C4040F201110C434FF6FF7101EA0311E7
:1016700026F022061143314305810483018470BDA5
:10168000808C704702460020138A92890B4202EA3E
:10169000010202D0002A00D0012070472DE9F84F46
:1016A0000D4604460888434FDFF80CC1DFF80C8173
:1016B000DFF80C914988AA882B894FF0804A48B3FB
:1016C000042830D04FF6FF760828934634D0208C7B
:1016D0009E4620F480502084A38B208C06EA0132A1
:1016E000009223F4734306EA0B221A4306EA0E33F0
:1016F0001343BC420AD0644508D0544506D0444543
:1017000004D04C4502D02F4A944245D120F40050D9
:10171000009943E02046FFF7D9FEE9882046BDE85E
:10172000F84F00F0F7B82046FFF706FFE98820469B
:10173000BDE8F84F00F0F6B8208C20F480702084CB
:10174000B4F81CE0208C06EA031306EA01222EF00E
:10175000F30E43EA0B0343EA0E030092BC420AD0A5
:10176000644508D0544506D0444504D04C4502D0C9
:10177000144A944203D120F40070009901E020F44F
:101780002060084340F48070A3832084E9882046C9
:10179000BDE8F84F00F0D2B820F40240084340F40E
:1017A0008050A3832084E9882046BDE8F84F00F0EC
:1017B000CDB80000002C014000340140000400407E
:1017C00000080040000C00400021018041800122FF
:1017D0008280C18001817047002A828901D00A433A
:1017E00000E08A4382817047018921F0070101816D
:1017F0007047000030B5028C22F001020284028C96
:101800008388048B22F0020224F073050C882C4399
:101810000D8915434A882A43114DA8420BD0114D1A
:10182000A84208D0104DA84205D0104DA84202D0C1
:101830000F4DA8420DD122F008054A8923F44073C8
:101840002A4322F004058A882A438D891D43CB89C7
:101850002B4383800483C9888186028430BD0000C5
:10186000002C014000340140004001400044014090
:101870000048014070B5028C22F010020284028CF4
:101880008388048B0D8824F4E6464FF6FF7404EA3F
:10189000052535430E8922F0200204EA0616164378
:1018A0004A8804EA02123243104EB04202D0104E6F
:1018B000B04215D122F080064A8923F4406304EA3D
:1018C0000212324322F040068A8804EA02123243AE
:1018D0008E8904EA86061E43CB8904EA83033343D8
:1018E00083800583C9880187028470BD002C014074
:1018F000003401400021018041808180C18001814C
:1019000041818181C181704781867047018770471D
:1019100081847047028B22F00C020283028B0A43FF
:1019200002837047028B22F440620283028B4FF6DF
:10193000FF7303EA01210A4302837047828B22F07E
:101940000C028283828B0A4382837047828B22F44B
:1019500040628283828B4FF6FF7303EA01210A43C0
:101960008283704730B502881B4C1C4DA0420DD0BD
:10197000A8420BD0B0F1804F08D0194B984205D047
:10198000184B984202D0184B984203D122F07003B2
:101990004A881A43154B984206D0154B984203D0FB
:1019A00022F44073CA881A4302808A8882850A8892
:1019B0000285A0420AD0A84208D00E4A904205D023
:1019C0000D4A904202D00D4A904201D1097A018617
:1019D0000121818230BD0000002C01400034014013
:1019E0000004004000080040000C004000100040CF
:1019F0000014004000400140004401400048014004
:101A00007FB501210220FFF7F3FB194D2846FFF7B0
:101A1000EBFE0024ADF806406320ADF80400ADF8FD
:101A2000024041F61F40ADF800008DF808406946BD
:101A30002846FFF797FF01212846FFF7EDFD012219
:101A400011462846FFF7C8FE1D208DF80C00012026
:101A50008DF80F0005208DF80D008DF80E4003A8BD
:101A6000FFF716F801212846FFF7DCFD7FBD0000D7
:101A70000004004070B50A4C0A4D2946206802F067
:101A800031FC064620602946A06A02F02BFC014684
:101A9000A062AE4201DBA94201DA2560A56270BDF9
:101AA000C00000200000204170B5064C064D2946BC
:101AB000206802F061F920602946A06A02F05CF912
:101AC000A06270BDC00000200000204110B5034C92
:101AD0000349206802F006FC206010BDC000002011
:101AE0000000A04010B5034C0349A06A02F0FAFBC5
:101AF000A06210BDC00000200000A04070470000A0
:101B00002DE9F041194C40F225552946204600F0B8
:101B10004AF8012828D1204600F0D2F81449C2B270
:101B200000200B7801262BB1124F012B06D0022B7F
:101B30000ED013E0402A11D10E7004E0262A04D002
:101B400048783A54401C487008E00220087005E0CC
:101B50007C2A03D108704A78B8548E7029462046F2
:101B6000BDE8F04100F008B8BDE8F0810044004055
:101B70002C000020140100200A0A01219140C943D1
:101B8000018070470029818902D041F4005101E0B1
:101B900021F40051818170470246002012880A42D8
:101BA00000D00120704770B501F01F050126002408
:101BB000C1F3421306FA05F2012B0FD0022B0FD00E
:101BC000838A4FEA11210088134206FA01F600EADF
:101BD000060001D000B10124204670BD8389F0E7E2
:101BE000038AEEE710B5C1F3421301F01F0401218F
:101BF000A140012B07D0022B07D01430002A026825
:101C000005D00A4304E00C30F8E71030F6E78A43C9
:101C1000026010BD30B50446008A85B00D464CF612
:101C2000FF710840E98801432182A0894EF6F31133
:101C30000840A9882A8911436A8902431143A18176
:101C4000A08A4FF6FF410840A9890143A182684656
:101C5000FFF7E6FA1948844201D1039800E00298A0
:101C6000A189090400EBC00101EB0010296801D52E
:101C7000490000E08900B0FBF1F06422B0FBF2F112
:101C800009010B096FF018056B4300EB8300A38972
:101C90001D044FF0320306D503EBC000B0FBF2F099
:101CA00000F0070005E003EB0010B0FBF2F000F0DD
:101CB0000F000843208105B030BD0000003801400E
:101CC0008088C0F308007047C1F308018180704725
:101CD000FEE7704710B50420FFF7BAFB0C480D492A
:101CE0000D4A0068B0FBF1F3B0FBF1F14FF47A70EC
:101CF00041431370012050804FF0E020026942F010
:101D0000020202614161016941F00101016110BDFE
:101D10000400002040420F003000002070B504464F
:101D200001F0CEFD01280CD0094D6888844203D310
:101D3000B4FBF0F000F0D4FF6888B4FBF0F100FBD6
:101D400011444FF47A706043BDE8704000F002B86F
:101D50003000002070B54FF0E02500216C69094A81
:101D6000AB6912785043AA699A42FCD002D2A3EB25
:101D7000020302E0A4EB02063344194413468142F5
:101D8000F1D370BD3000002004490A885206FCD50A
:101D9000024AC1B2121D1180704700000038014094
:101DA0001CB507490120CDE900010023802205A1CF
:101DB000074801F059FDBDE81C4001F041B90000A1
:101DC0001C00002073746172745F7461736B000097
:101DD0004D28000810B54FF44070FEF78BFEFFF75A
:101DE00079FFFEF705FEFEF7DDFDFEF72BFFFFF79F
:101DF0001FF9FEF725FEFFF703FEFEF70BFDFEF7CA
:101E0000ADFCFFF7F9F8FFF755FA01210AA20846E1
:101E1000FEF7E5FF09A201210220FEF7E0FF4FF4E3
:101E20007A742046FFF754F92046FFF757F9FFF779
:101E3000B7FF002010BD000053763A005376323AC7
:101E4000000000002DE9F041184E0F460446F568E9
:101E50003068001D00F0BAFD38B9306890F82C10D9
:101E600001208840316981433161601C07D137B15D
:101E70003168BDE8F0410E48091D00F0DFBD306853
:101E80002C44AC424460316805D2B06BBDE8F041EF
:101E9000091D00F0BBBD706B091D00F0B7FDB06AF5
:101EA000844200D2B462BDE8F08100004C00002002
:101EB000300400202DE9F041054600F0CBFD2D4E09
:101EC000B068401CB06030682B4F10B1706930B3FF
:101ED0002BE03560B068012827D1002404EB840092
:101EE00007EB800000F084FD641C202CF6D323480F
:101EF00000F07EFD2148143000F07AFD1F482830A4
:101F000000F076FD1D483C3000F072FD1B4850305B
:101F100000F06EFD194870631430B06305E030685E
:101F2000E96AC06A884200D83560706A0121401CA5
:101F300070626864E86A326981401143316100EB84
:101F4000800007EB8000291D00F078FD00F0BEFD49
:101F5000706900280CD03068E96AC06A884207D2EC
:101F600007494FF080500860BFF34F8FBFF36F8F6A
:101F7000BDE8F0814C00002060010020E00300205B
:101F800004ED00E010B500F065FD0E4C2068A0B92E
:101F90000D4800F02DFD0C48143000F029FD0A48D2
:101FA000E0601430206100221021052001F092F938
:101FB000206010B105A100F05FFEBDE8104000F008
:101FC00085BD00008800002044040020546D72513B
:101FD0000000000070B5124E124D1CE001F0E2F856
:101FE000306820B1002401F099FDA4B901E001247A
:101FF000F9E700F02FFDF068C468201D00F0E6FC52
:10200000A868401EA8606868401E686000F05EFD19
:10201000204600F052F868680028DFD170BD00004B
:102020001C0400204C00002030B4026C0B46002A37
:102030000BD0C1681144C1604468A14201D301685A
:10204000C16030BC1846FEF7DDB930BC70472DE9E1
:10205000F041856B174604460026026C82B1C7B179
:10206000E068FEF7CFF9E168206C091AE1602268A8
:10207000914202D26168081AE060022F16D017E080
:102080002068A8B9606801F0A3FC064600206060E3
:102090000EE0A068FEF7B6F9216CA0680844A060C5
:1020A0006168884204D32068A06001E005B16D1E1C
:1020B0006D1CA5633046BDE8F08110B50446006B89
:1020C00000F036FD2046BDE8104000F031BD0000B4
:1020D00010484FF42051420706D0C01D0D4920F092
:1020E0000700411AC1F520510B4A00230144C2E9FF
:1020F00000030839103A21F0070111604B600B60B2
:102100000B1AC0E9001393604FF000405360D06099
:10211000704700006C040020AC000020074E4FF018
:102120008054074DFFF756FF30680128FAD92C601C
:10213000BFF34F8FBFF36F8FF4E700006001002003
:1021400004ED00E02DE9F047DDE909840E4617466D
:10215000824691009946089DA522206BFEF797F9CB
:102160006FF00301206B01EB8701084420F00707A3
:10217000780705D040F22B3219A11EA0FEF79CF87B
:1021800000202218315C82F83410315C11B1401CFF
:102190001028F6D3002684F84360202D00D31F2595
:1021A000E562C4E91356201D00F02DFC04F118006F
:1021B00000F029FC2461C5F120006462A06166651D
:1021C00084F858604A465146384600F02DFB20609E
:1021D000B8F1000F01D0C8F80040BDE8F08700005A
:1021E0002E2E5C4672656552544F535C7461736B5E
:1021F000732E63004572726F723A25732C25640D3D
:102200000A00000030B5114900E011460A68824218
:10221000FBD34B685C18844203D140681844486083
:10222000084643681C18944209D1084C103C2468A5
:10223000A24209D052681A4442600A6812680260D9
:10224000814200D0086030BD0460F9E7AC00002096
:1022500070B5002441600B4D0061914206D8D11A3F
:102260008269914206D2011D286907E09A4203D291
:10227000994201D3012403E0011DE86800F0C6FB88
:10228000204670BD8800002010B5044600F0E2FB37
:10229000A06B20B1002400F019FC204610BD0124E1
:1022A000F9E700002DE9F34100980F460026846C01
:1022B0002CB940F6CE1216A11AA0FDF7FDFFA06BB7
:1022C000E16B884205D340F6CF1211A115A0FDF7AE
:1022D000F3FFA06BE16B88420CD294F945503A466B
:1022E00069462046FFF7B3FE0646681C05D06D1C04
:1022F00084F845503046BDE8FC81606A0028F9D07A
:1023000004F1240001F0BEFB0028F3D00126F1E720
:102310002E2E5C4672656552544F535C717565751F
:10232000652E63004572726F723A25732C25640D19
:102330000A000000F8B5054614480E46C068C0689B
:10234000C468201D00F042FBE069012817D1A06994
:102350002B46411932462046FFF77AFF78B100201C
:102360000346014600902A46204601F0BDFC30B9E4
:1023700007494FF4027201F11800FDF79DFF616AF1
:1023800001B02046BDE8F04008470000880000206A
:102390004C3C000870B586B02F4E53E001980028E1
:1023A00006DADDE90301029A90470198002849DB2B
:1023B000039C606910B1201D00F008FB05A800F027
:1023C000A7F8054601980A283CD2DFE800F0050589
:1023D000053B273805053B270298A16903460144C0
:1023E0002A462046FFF734FF00282BD0616A20469A
:1023F0008847E069012825D1002000900298A16952
:10240000002342181946204601F06EFCD0B940F274
:10241000213212A117A0FDF74FFF13E00298A0612F
:1024200028B94FF44E720DA112A0FDF745FFA06927
:102430002B4641191A462046FFF70AFF02E02046C4
:1024400000F076FB00231A4601A9306800F07EFFF9
:102450000028A3D106B070BD880000202E2E5C4657
:1024600072656552544F535C74696D6572732E6367
:10247000000000004572726F723A25732C25640DBE
:102480000A000000F8B50D46064600F08BFE6846CF
:1024900000F03EF80446009810B101F03FFBF8BD93
:1024A0001148ADB101690968D9B10025311B2A462F
:1024B000006800F0F3FB01F031FB0028EFD10B497D
:1024C0004FF080500860BFF34F8FBFF36F8FF8BDA0
:1024D000A642EBD801F022FB21463046FFF72AFF47
:1024E000F8BD0125E2E700008800002004ED00E0CF
:1024F0000648416B096829B1416BC968C9684968D8
:10250000816270474FF0FF31FAE700004C00002075
:1025100070B5054601F0E2F9064E0446B068844203
:1025200003D200F009F8012000E0002028602046D6
:10253000B46070BD88000020F8B5184E26E0C06871
:10254000C4680568201D00F041FA616A204688478A
:10255000E06901281AD1A0692844A84206D924615B
:102560006060211DF06800F051FA0FE00020034682
:10257000014600902A46204601F0B6FB30B90849D2
:1025800040F2923201F11800FDF796FEF068016802
:102590000029D4D13169C6E90310F8BD88000020B4
:1025A0004C3C000808484068401C04D0F42207A1B5
:1025B00011A0FDF781FE502080F31188BFF34F8FEB
:1025C000BFF36F8FFEE70000B40000202E2E5C46A4
:1025D00072656552544F535C706F727461626C65C2
:1025E0005C525644535C41524D5F434D335C706FB7
:1025F00072742E63000000004572726F723A257388
:102600002C25640D0A00000070B50025040005D1DA
:1026100040F2816207A10CA0FDF74EFE0E496069F1
:10262000884205D1A06A2839884201D000B9012525
:10263000284670BD2E2E5C4672656552544F535C21
:102640007461736B732E63004572726F723A2573F7
:102650002C25640D0A00000030040020084CE068BE
:10266000016839B1002139B10020FFF70BFFFFF7F6
:1026700091FEF4E70121F6E7C0680068F5E7000085
:10268000880000202DE9F041044600F0E3F994F9B8
:10269000455004F1240610E0A06C20B10021204632
:1026A000FFF700FE04E0606A48B1304601F0EAF945
:1026B00008B100F0B1FB6D1E6DB2002DECDC4FF0E7
:1026C000FF3684F8456000F001FA00F0C3F994F990
:1026D000445004F1100709E0206948B1384601F080
:1026E000D1F908B100F098FB6D1E6DB2002DF3DC3E
:1026F00084F84460BDE8F04100F0E8B92DE9F0410C
:102700000546002600F04EFD324F386808B9FFF745
:10271000DFFCF86805424FD1002D4DD00835680721
:102720000BD005F00700C0F108000544680704D08D
:10273000BF2229A132A0FDF7BFFD002D3CD0786853
:10274000854239D8234910310846046801E0214602
:1027500004466068A84202D220680028F7D1386891
:10276000B846844228D00E68206808606068083641
:10277000401B10280ED96719780704D0EC2216A147
:102780001FA0FDF799FD6068401B786038466560C2
:10279000FFF738FD6168D8F804004246401AC8F8CF
:1027A0000400D8F80830984200D29060D8F80C00A5
:1027B00001430020C4E9000101F0B0F9700705D021
:1027C0004FF4967204A10EA0FDF776FD3046BDE8E9
:1027D000F08100009C0000202E2E5C467265655240
:1027E000544F535C706F727461626C655C4D656DC3
:1027F0004D616E675C686561705F342E6300000038
:102800004572726F723A25732C25640D0A00000020
:102810000449086818B10868026D521C026508680E
:10282000704700004C00002010B5031F4FF080746B
:102830001C601B1F21F001011960191F024B0B6066
:10284000143940380A6010BDA52500081CB500F0F9
:1028500001F915480324CDE900400023802213A18B
:10286000144801F001F810480023001DCDE9004094
:10287000802211A1124800F0F7FF0B490420083113
:10288000CDE90001002380220EA1104800F0ECFFEA
:1028900005480838806800F01DFC002000F056FA5A
:1028A000BDE81C4000F012B9200000207461736B79
:1028B00031000000D12800087461736B3200000001
:1028C000D92800087461736B330000006129000887
:1028D000FEF70AFCFCE700001B4F1C4C1C4E0025B9
:1028E0003878012820D11B4800784F2816D004DC06
:1028F000442809D04C2813D109E052280AD0552881
:102900000ED1FFF7D1F80BE0FFF7B4F808E0FFF7BE
:10291000DDF801E0FFF7E6F8358001E0FEF790FD15
:102920003D700DA0FEF72CFD3088C828D8D1A16AD3
:10293000206801F0A5FC02D22068A06201E0A06A34
:1029400020603580CCE700002E000020C000002071
:102950000000002014010020525F4F4B0D0A0000C0
:102960000024184D184EFEF701F801280AD12878E6
:102970003460B462E0B1A86800F0ACFBE86800F035
:10298000EBFA2C70306801F027FB02460223052188
:102990000120FEF7F9F9B06A01F01EFB024602239E
:1029A00005211846FEF7F0F9642000F099F9DAE7FE
:1029B000E86800F08FFBA86800F0CEFA01202870CC
:1029C000E0E7000018000020C0000020D0E901323C
:1029D00001699A60D0E901235A604A68824201D1B4
:1029E00082684A60002202610868401E08607047E1
:1029F00000F108014FF0FF32C0E90112C16001612E
:102A000000210160704700210161704730B50C68FA
:102A1000621C02D000F1080202E0026904E01A46DA
:102A200053681D68A542FAD953684B6099608A6063
:102A3000516008610168491C016030BD42684A600C
:102A400093688B6093685960916008610168491CC4
:102A500001607047502080F31188BFF34F8FBFF3A0
:102A60006F8F09494868401C486001280AD107480F
:102A7000006810F0FF0F05D04FF4BD7204A10FA045
:102A8000FDF71ABC70470000B400002004ED00E020
:102A90002E2E5C4672656552544F535C706F727493
:102AA00061626C655C525644535C41524D5F434DCC
:102AB000335C706F72742E63000000004572726F99
:102AC000723A25732C25640D0A00000010B5084CDD
:102AD000606828B940F2811206A111A0FDF7ECFB55
:102AE0006068401E606001D180F3118810BD000055
:102AF000B40000202E2E5C4672656552544F535C24
:102B0000706F727461626C655C525644535C4152E2
:102B10004D5F434D335C706F72742E630000000094
:102B20004572726F723A25732C25640D0A000000FD
:102B300070B500282AD0164DA0F108046068E96835
:102B4000084205D14FF4A07212A11CA0FDF7B4FBFE
:102B5000206828B140F241120EA118A0FDF7ACFB8D
:102B60006068E968084211D02268002A0ED18843C3
:102B7000606000F017FB6068696808446860204680
:102B8000FFF740FBBDE8704000F0C8BF70BD00001B
:102B90009C0000202E2E5C4672656552544F535C9B
:102BA000706F727461626C655C4D656D4D616E67CE
:102BB0005C686561705F342E630000004572726F5F
:102BC000723A25732C25640D0A00000006484FF464
:102BD0007A710068B0FBF1F14FF0E020491E4161CD
:102BE00007210161704700000400002010B5FDF7C7
:102BF0003DFB104C10280CD300F1E02090F8F003BE
:102C00002178884205D24FF42A720BA115A0FDF756
:102C100053FB18480068A16800F4E060884207D9B7
:102C2000BDE810404FF42E7203A10EA0FDF744BB87
:102C300010BD0000B40000202E2E5C467265655267
:102C4000544F535C706F727461626C655C52564491
:102C5000535C41524D5F434D335C706F72742E6311
:102C6000000000004572726F723A25732C25640DC6
:102C70000A0000000CED00E010B5074B002253F8ED
:102C800032401CB1521C082AF9D310BD43F832104F
:102C900003EBC201486010BD2001002070B515464D
:102CA0000E460446FFF7D6FE94F944100020491C56
:102CB00001D184F8440094F94510491C01D184F8ED
:102CC0004500FFF703FFA06B28B92A46314604F1FF
:102CD000240000F0D1F82046BDE87040FFF7D2BCD8
:102CE00010B5040012D00E49096B29B140F2CF4251
:102CF0000CA111A0FDF7E0FA00F054FA00212046E3
:102D0000FFF7A0F800F00AFF002807D10E494FF0A6
:102D100080500860BFF34F8FBFF36F8F10BD00006E
:102D20004C0000202E2E5C4672656552544F535C59
:102D30007461736B732E63004572726F723A257300
:102D40002C25640D0A00000004ED00E070B5044677
:102D5000FFF780FE234D04B92C68201DFFF736FED7
:102D600058B9E06A204A00EB800152F8211021B9DD
:102D700001218140286988432861A06A18B104F1C3
:102D80001800FFF723FE686A401C686228688442C6
:102D900007D1211D1548FFF751FE6868401C686087
:102DA00007E0A868401EA8602046FFF786F9FFF7F5
:102DB0009FFBFFF78BFE6869002812D028688442C9
:102DC0000FD1286B28B140F2654209A10DA0FDF793
:102DD00073FA10494FF080500860BFF34F8FBFF374
:102DE0006F8F70BD4C000020600100201C0400208B
:102DF0002E2E5C4672656552544F535C7461736B42
:102E0000732E63004572726F723A25732C25640D20
:102E10000A00000004ED00E001490120C86170478C
:102E20004C00002070B50D46040005D140F6063276
:102E300007A10CA0FDF740FA0E48016820461831A2
:102E4000FFF7E4FD2846BDE870400121FEF7FABF18
:102E50002E2E5C4672656552544F535C7461736BE1
:102E6000732E63004572726F723A25732C25640DC0
:102E70000A0000004C00002070B514460E46050004
:102E800005D140F6313209A10DA0FDF715FA104821
:102E9000016828461831FFF7D1FD0CB14FF0FF361D
:102EA00021463046BDE87040FEF7CCBF2E2E5C4672
:102EB00072656552544F535C7461736B732E63007B
:102EC0004572726F723A25732C25640D0A0000005A
:102ED0004C00002070B5040039D01D4DE06A29680F
:102EE000C96A884233D2A069002804DB2868C06A16
:102EF000C0F12000A061E06A164E00EB800061691D
:102F000006EB800081421FD1201DFFF75FFD0121EC
:102F100050B9E06A00EB800256F8222022B92A69F3
:102F200001FA00F082432A612868C06AE0622A69D7
:102F300081401143296100EB800006EB8000211DD8
:102F4000BDE87040FFF77ABD2868C06AE06270BDD6
:102F50004C0000206001002070B504002BD01A4DF9
:102F6000286884422FD0FFF775FD2046FFF74CFB01
:102F7000E8B1201DFFF72AFDE06A01212A6981409E
:102F800011432961114900EB800001EB8000211DF4
:102F9000FFF754FDE06A2968C96A884207D30C49E3
:102FA0004FF080500860BFF34F8FBFF36F8FBDE8C5
:102FB0007040FFF78BBDBDE8704040F2AB6205A1E9
:102FC00009A0FDF779B970BD4C0000206001002018
:102FD00004ED00E02E2E5C4672656552544F535C42
:102FE0007461736B732E63004572726F723A25734E
:102FF0002C25640D0A00000010B5040005D140F630
:10300000C13205A109A0FDF757F90C48016A2160FA
:10301000C068606010BD00002E2E5C46726565526F
:10302000544F535C7461736B732E63004572726FFF
:10303000723A25732C25640D0A0000004C00002014
:103040001CB517480024CDE900402346822215A173
:10305000164800F009FC012803D100F00BFE0128FE
:103060000AD0401C1BD102B040F28472BDE810406F
:103070000FA114A0FDF720B9502080F31188BFF3F1
:103080004F8FBFF36F8F06484FF0FF312C388162AE
:1030900001214161C460BDE81C4000F0C9B81CBDFD
:1030A0007800002049444C45000000001D21000824
:1030B0002E2E5C4672656552544F535C7461736B7F
:1030C000732E63004572726F723A25732C25640D5E
:1030D0000A00000070B50446FFF7BCFC244D04B99B
:1030E0002C68201DFFF772FC58B9E06A214A00EBFA
:1030F000800152F8211021B90121814028698843BB
:103100002861A06A18B104F11800FFF75FFC211DC7
:103110001948FFF793FCFFF7D9FC686928B1FFF75E
:1031200099FCFFF7E5F9FFF7D1FC2868844211D13B
:10313000686980B1286B28B140F257620FA114A0D2
:10314000FDF7BAF816494FF080500860BFF34F8F73
:10315000BFF36F8F70BD0848A9680068884202D12C
:103160000020286070BDBDE8704000F023B800006A
:103170004C00002060010020300400202E2E5C4610
:1031800072656552544F535C7461736B732E6300A8
:103190004572726F723A25732C25640D0A00000087
:1031A00004ED00E00248016B491C01637047000018
:1031B0004C00002070B5134D286B10B10120E86160
:1031C00070BD0020E86128690F4EB0FA80F0C0F1B0
:1031D0001F0000EB800456F8240028B940F6F622C0
:1031E0000AA10FA0FDF768F806EB840000F10802C1
:1031F000416849684160914201D149684160C868AD
:10320000286070BD4C000020600100202E2E5C461E
:1032100072656552544F535C7461736B732E630017
:103220004572726F723A25732C25640D0A000000F6
:103230001CB51A4908780190FF20087008788DF8AD
:1032400000009DF80000164A00F0500010700720A2
:10325000906007E09068401E90609DF8000040007C
:103260008DF800009DF800000006F3D4107A0002EB
:1032700000F4E0609060019808700A48016841F429
:1032800070010160016841F070410160FFF79EFC30
:1032900000205060FCF7B4FF00201CBD00E400E0FB
:1032A000B400002020ED00E010B5502080F311881C
:1032B000BFF34F8FBFF36F8F00F016FB18B10449B7
:1032C0004FF080500860002080F3118810BD00008E
:1032D00004ED00E02DE9F04117460E46050005D14A
:1032E0004FF4C47210A115A0FCF7E6FFBEB105FBB8
:1032F00006F05430FFF702FA04000ED004F1540037
:103300007EB12060C4E90F562046012100F0E0F8AC
:1033100084F8507000212046A164BDE8F0810020AF
:10332000E7E72460EEE700002E2E5C4672656552EA
:10333000544F535C71756575652E63004572726FED
:10334000723A25732C25640D0A0000002DE9FF4F09
:1033500083B09B468A4604004FF0000605D140F238
:10336000DC4251A155A0FCF7A7FFBAF1000F07D12D
:10337000206C28B140F2DD424BA150A0FCF79CFF2D
:1033800000F09EFA38B9059828B14FF49C6246A126
:103390004AA0FCF791FF4FF000094FF08057DFF88B
:1033A0002C81FFF757FBA56B45B351462046E668D5
:1033B000FEF73AFEBBF1000F13D0E660606A50B131
:1033C00004F1240000F05EFB28B1C8F80070BFF3E0
:1033D0004F8FBFF36F8FFFF779FB012007B0BDE878
:1033E000F08F6D1EA563206810B9FFF711FA6060B9
:1033F00020690028EFD004F11000E3E7059808B138
:103400001EB106E0FFF762FB27E06846FFF7F4FD18
:103410000126FFF75BFBFFF7C5FEFFF71BFB94F9E7
:103420004400401C01D184F8449094F94500401CAC
:1034300001D184F84590FFF749FB05A9684600F0E3
:10344000CFF9002820460AD0FFF71CF900F066FBF0
:103450002046FEF719FF0028A3D00020BEE7FEF7A4
:1034600013FFD8B1206830B9FFF7F4FA6068FFF7AE
:1034700031FDFFF72BFB04F124000599FFF7D2FC87
:103480002046FFF7FFF800F049FB002889D1C8F873
:103490000070BFF34F8FBFF36F8F82E72046FFF7B7
:1034A000F1F800F03BFB7CE72E2E5C46726565521E
:1034B000544F535C71756575652E63004572726F6C
:1034C000723A25732C25640D0A00000004ED00E01B
:1034D00070B50D46040005D140F21B121CA121A0BD
:1034E000FCF7EAFEFFF7B6FAD4E90F20216802FBE9
:1034F000001161600021A1632168A1600A46D4E93E
:103500000F01401E00FB0121E16021464FF0FF301A
:1035100001F8440F487004F110004DB1FFF768FA4C
:1035200004F12400FFF764FAFFF7D0FA012070BD20
:1035300021690029F8D000F0A5FA0028F4D00D493F
:103540004FF080500860BFF34F8FBFF36F8FEBE7F2
:103550002E2E5C4672656552544F535C71756575CD
:10356000652E63004572726F723A25732C25640DC7
:103570000A00000004ED00E02DE9FF4F83B09946FA
:103580008B4604004FF0000605D140F2D92252A12B
:1035900056A0FCF791FEBBF1000F07D1206C28B1BB
:1035A00040F2DA224CA151A0FCF786FEB9F1020FDD
:1035B00008D1E06B012805D040F2DB2246A14BA0E8
:1035C000FCF77AFE00F07CF938B9059828B140F292
:1035D000DE2241A145A0FCF76FFE4FF0000A4FF03C
:1035E0008057DFF81881FFF735FAA06BE16B88424E
:1035F00006D3B9F1020F03D0059800B316B325E046
:103600004A4659462046FEF722FDA16C21B14946A3
:103610002046FEF747FE05E0616A19B104F1240077
:1036200000F030FA28B1C8F80070BFF34F8FBFF335
:103630006F8FFFF74BFA012007B0BDE8F08FFFF75F
:1036400045FA21E06846FFF7D7FC0126FFF73EFA6E
:10365000FFF7A8FDFFF7FEF994F94400401C01D1E3
:1036600084F844A094F94500401C01D184F845A099
:10367000FFF72CFA05A9684600F0B2F830B12046F1
:10368000FFF700F800F04AFA0020D5E7FFF7E2F96B
:10369000A06BE16B884201D1012500E00025FFF716
:1036A00015FA95B104F110000599FFF7BBFB204610
:1036B000FEF7E8FF00F032FA002894D1C8F8007055
:1036C000BFF34F8FBFF36F8F8DE72046FEF7DAFF12
:1036D00000F024FA87E700002E2E5C4672656552E2
:1036E000544F535C71756575652E63004572726F3A
:1036F000723A25732C25640D0A00000004ED00E0E9
:103700002DE9F047984615468946040005D140F258
:103710009F322AA12EA0FCF7CFFDB9F1000F07D1EF
:10372000206C28B14FF4687224A129A0FCF7C4FDD5
:10373000B8F1020F08D1E06B012805D040F2A132A8
:103740001EA123A0FCF7B8FDFFF750FA5020EFF3BD
:10375000118780F31188BFF34F8FBFF36F8FA06B7A
:10376000E16B884207D3B8F1020F04D0002087F341
:103770001188BDE8F08794F94560424649462046E5
:10378000FEF765FC701C04D0761C84F845600120AF
:10379000EDE7A06C012620B141462046FEF782FDF0
:1037A00006E0606A0028F2D004F1240000F06AF913
:1037B0000028ECD0002DEAD02E60E8E72E2E5C46E3
:1037C00072656552544F535C71756575652E630063
:1037D0004572726F723A25732C25640D0A00000041
:1037E00070B50D46040005D140F6CB3214A119A0E6
:1037F000FCF762FD2DB940F6CC3211A115A0FCF703
:103800005BFDFFF727F9174AD06829684B1C0FD0DA
:103810002368126A934202D0626882420AD96268BF
:10382000801A884206D2081A28602046FFF7E4FB77
:10383000002400E00124FFF749F9204670BD000094
:103840002E2E5C4672656552544F535C7461736BE7
:10385000732E63004572726F723A25732C25640DC6
:103860000A0000004C0000202DE9FF5F8346DDE9DF
:103870000E87994616468A469000FEF73FFF0500E0
:103880001AD05C20FEF73AFF040012D02563002115
:10389000CDE90241CDE900874B46324651465846B4
:1038A000FEF750FC2046FEF705FB012004B0BDE802
:1038B000F09F2846FFF73CF94FF0FF30F6E7000095
:1038C0000548416919B1006B18B10020704701200B
:1038D00070470220704700004C0000200148C0687B
:1038E000704700004C0000202DE9F0412D4F0026CC
:1038F000386B40B1B869401CB861F86900B1012665
:103900003046BDE8F081FD686D1CFD6011D1786B1B
:10391000006828B140F6D91223A128A0FCF7CCFCFE
:10392000786BB96B7963B863386A401C3862FEF70C
:10393000DFFDB86ADFF89480854209D3786B0068B0
:1039400080B1786BC068C468606885420DD2B86287
:103950003868C06A00EB800158F821000128CCD9F2
:103960000126CAE74FF0FF30F1E7201DFFF72EF8E0
:10397000A06A18B104F11800FFF728F8E06A0121E5
:103980003A6981401143396100EB800108EB810005
:10399000211DFFF753F8E06A3968C96A8842CDD320
:1039A0000126CBE74C0000202E2E5C467265655246
:1039B000544F535C7461736B732E63004572726F66
:1039C000723A25732C25640D0A0000006001002066
:1039D00070B504004FF000063CD01F4D28688442AB
:1039E00005D040F6C7621DA121A0FCF765FC206D43
:1039F00028B940F6C96219A11DA0FCF75DFC206D35
:103A0000401E2065E26CE16A914223D010BB201D6C
:103A1000FEF7DCFF1A49012250B9E06A00EB80038F
:103A200051F8233023B92B6902FA00F083432B614C
:103A3000E06CE062C0F12000A061E06A2B69824086
:103A40001A432A6100EB800001EB8000211DFEF784
:103A5000F5FF0126304670BD4C0000202E2E5C463E
:103A600072656552544F535C7461736B732E6300BF
:103A70004572726F723A25732C25640D0A0000009E
:103A8000600100202DE9F041C068C4682CB940F6FF
:103A9000613216A11AA0FCF70FFC04F118000746CA
:103AA000FEF794FF1A4D286B012660B1394619487C
:103AB000FEF7C4FFE06A2968C96A884213D9012069
:103AC000EE61BDE8F081201DFEF780FFE06A2A6903
:103AD00006FA00F1114329610F4900EB800001EB68
:103AE0008000211DE4E70020EBE700002E2E5C465D
:103AF00072656552544F535C7461736B732E63002F
:103B00004572726F723A25732C25640D0A0000000D
:103B10004C00002008040020600100202DE9F0473F
:103B20002B4D00242746286B28B94FF4FD6229A1AC
:103B30002DA0FCF7C1FBFEF78DFF286B401E28630C
:103B4000286BE8BBA8682C490126C8B3A1F52A79DF
:103B50008846D8F80010E9B1D8F80C00C46804F120
:103B60001800FEF733FF201DFEF730FFE06A2A69D8
:103B700006FA00F11143296100EB800109EB810095
:103B8000211DFEF75BFFE06A2968C96A8842E0D31D
:103B9000EE61DEE70CB1FEF7ABFCAC693CB1FFF7C0
:103BA000A3FE00B1EE61641EF9D10020A861E869AE
:103BB00030B11249012738070860BFF34F8F00E08A
:103BC00001E0BFF36F8FFEF781FF3846BDE8F08755
:103BD0004C0000202E2E5C4672656552544F535C9B
:103BE0007461736B732E63004572726F723A257342
:103BF0002C25640D0A0000000804002004ED00E0FC
:103C00002DE9F0470746994616460D462C20DDF86B
:103C100020A0FEF773FD040014D0B8464F46D146ED
:103C20002DB94FF4C67209A10EA0FCF745FBFEF7B3
:103C3000A9F904F11801C4F8008081E8E002201D10
:103C4000FEF7E1FE2046BDE8F08700002E2E5C4620
:103C500072656552544F535C74696D6572732E635F
:103C6000000000004572726F723A25732C25640DB6
:103C70000A0000001CB50024FEF784F90C48006817
:103C800068B10B491F20091DCDE9000100234FF445
:103C9000827208A10948FFF7E7FD040005D140F250
:103CA000331207A10CA0FCF707FB20461CBD000047
:103CB00088000020546D7220537663005D26000852
:103CC0002E2E5C4672656552544F535C74696D6567
:103CD00072732E63000000004572726F723A257392
:103CE0002C25640D0A0000002DE9FF47DDF830A007
:103CF000994690460D4606004FF0000705D14FF457
:103D0000D37212A117A0FCF7D7FA1A4C206880B121
:103D1000CDE900580296062D11DAFFF7D1FD0228F1
:103D20004FF0000309D0002269462068FFF724FC09
:103D3000074604B03846BDE8F0875246F4E7002352
:103D40004A466946FFF7DCFCF2E700002E2E5C468F
:103D500072656552544F535C74696D6572732E635E
:103D6000000000004572726F723A25732C25640DB5
:103D70000A0000008800002090EA010F48BF81F08F
:103D8000004100F1B682421A3CBF801A89184FEAFE
:103D9000D0524FF07F4C1CEA410FA2EBD15318BF19
:103DA0009CEA026F00F03B804FF0004C4CEA002090
:103DB0004CEA012121FA03FC10EB0C0C1ED202F19B
:103DC000FF325FEA1C2040EBC25038BF70471CF046
:103DD0007F0F4FEA400C18BFBCF17F4F38BF7047D0
:103DE000C3F12003994008BF20F00100BCF17F4FD0
:103DF00038BF7047A0F1C04000F03DBA4FEA3C0028
:103E0000000A40EBC25028BF1CF0FF0F4FEA400CE5
:103E1000E6D018BFBCF17F4F38BF7047EAE79CEA95
:103E2000026F05D010EA5C0F08BF00F00040704739
:103E300010B500F0DAF900BF64FBBE3E401058BF79
:103E4000C0F14040491058BFC1F140418142EFF3F9
:103E5000008070474FF47F0C1CEAD0121EBF1CEA92
:103E6000D11392EA0C0F93EA0C0F00F0858090EAD0
:103E7000010F48BF42F4807240F4000C41F400008E
:103E80002CF07F4120F07F4000B58142A2EB03027D
:103E90000FF2081CACEB504EC0F100009EF800E0A1
:103EA0004FEA4E0E00FB0EFC38BF49004FEA2C1CB7
:103EB00002F5FA020CFB0EF34FEACE1E4FEA112C6C
:103EC0004FEAC1210EEB635E42EB22420EFB0CFC7B
:103ED0004FEA1C5300FB03114FEA112C4FEA01314A
:103EE0000EFB0CFC4FEADC4C00FB0C11C14228BF5E
:103EF00009184CEB03335DF804EB10EB410143EB85
:103F0000C250B2F57C0F38BF704729D512F0F00FC0
:103F10001CBF00F1C04000F0004070470081828368
:103F20008485868788898B8C8D8E8F9192939596C8
:103F300097999A9C9D9FA0A2A3A5A7A8AAACAEB052
:103F4000B2B3B5B7B9BCBEC0C2C5C7C9CCCED1D457
:103F5000D7D9DCDFE2E6E9ECF0F3F7FAFE00000087
:103F60004FEA400C0CF1807CBCF17E4F28BF7047BB
:103F7000B0F1C04000F07FB990EA010F0CEAD11314
:103F800048BF42F48072624538BF634507D213F4DC
:103F90007F0F16D080EA010000F00040704710B596
:103FA00000F023F9097EFC3E00F005B880EA01002C
:103FB00000F00040704780EA010000F0004000F08F
:103FC0005AB912F47F0F04BF0248704780EA01001B
:103FD00000F051B90000C07F41000B0ED3F19E02EA
:103FE00008D950F400034FEA032323FA02F048BF34
:103FF0004042704710B500F0F8F800BF49922480A5
:10400000002070476FF0004282EA200070470000F5
:10401000C10DD1F19E0206DB4FEA002343F00043BD
:1040200023FA02F07047004207D54FEA4001B1F190
:10403000FE4F02D24FF00000704710B500F0D5F8E7
:1040400049922480002070476FEA200070470000EA
:1040500010F0004148BF4042B0FA80F310FA03F27A
:10406000C3F19D030BD051EAC35101EB122053065B
:1040700038BF704700F1010008BF20F00100704711
:1040800050EA010C00F113801CF5000F58BFBCF57D
:10409000000F01D48842704707D710F5000F58BFB2
:1040A00011F5000F15D488427047894270471CF5FE
:1040B000000F04D5BCF5000FF7D5814270474FF0D3
:1040C000807C1CEB400F38BF1CEB410F01D28142BA
:1040D000704710B500F089F8922449004FF0005065
:1040E0004FF08051FFF7AABE4FF47F0C1CEAD012AC
:1040F0001EBF1CEAD11392EA0C0F93EA0C0F00F0DA
:10410000478090EA010F48BF42F480724FF0004CA4
:104110004CEA00204CEA012102EB0302A0FB011350
:10412000A2F50002002918BF43F001035B0028BF7D
:104130004FEA330342EB22425FEA132C4CEBC250AE
:104140002EBFBCEB436FB2F57C0F70474FEA036C98
:10415000BCF1004F08BF20F00100B2F57C0F38BF62
:1041600070470BD582F0FF0212F5803FC8BF704741
:1041700000F1C040D8BF00F00040704700F5000CCF
:104180005FEA4C0C48BF7047B0F1C04000F073B814
:1041900090EA010F0CEAD11348BF42F480726245E5
:1041A00038BF634504D280EA010000F00040704748
:1041B00010B500F01AF800BF8900013E00F007B802
:1041C00000F009B85FEA410C5FEA1C6C08D080EA95
:1041D000010000F050B85FEA400C5FEA1C6CF6D1B9
:1041E0004FF00040A0F5800070470EF1020E2EF057
:1041F000030E5EF8044B244204D44FEA4102B2F1AC
:104200007F4F11D84FEA4003B3F17F4F0CD80ED146
:104210004FEAD07CB2F17F4F0CEB4C0C0CF1020C4E
:1042200008BF4CEBD17C04E04FF0080C01E04FEAF2
:10423000D17C0CEB4C0324FA03F404F00704B4F132
:10424000040C06D20EEB840CBDE810404CF0010CBF
:104250006047DFE80CF0070802024FF00040A0F5CD
:10426000800010BD0846420018BFD2F1807288BF9E
:1042700000F0004010BDFF2141EAD050C00570475A
:1042800051EA000C00F113801CF5000F58BFBCF57B
:10429000000F01D48142704707D711F5000F58BFB6
:1042A00010F5000F15D481427047894270471CF504
:1042B000000F04D5BCF5000FF7D5884270474FF0CA
:1042C000807C1CEB410F38BF1CEB400F01D28842B1
:1042D000704780EA010081EA000180EA0100FFF7EF
:1042E000F8BE000090EA010F48BF81F000413FF5A1
:1042F0004AAD421A04D882F00042A0EB02001144F9
:104300004FEAD0524FF07F4C1CEA410FA2EBD15341
:1043100018BF9CEA026F4AD04FF0004C4CEA0020D4
:104320004CEA012121FA03FCB0EB0C0C0FD412F083
:10433000FE0F36D05FEA4C001DD5001240EBC25094
:1043400038BF70471CF03F0F18BF70470BE0A2F159
:1043500001025FEA1C2040EBC25038BF70471CF0DE
:104360007F0F18BF7047C3F12003994014BF401E50
:1043700020F00100704780084FEA122308BF704701
:10438000B0FA80FCA2EB0C02CCF1280C60FA0CF025
:1043900093EA122F04BF00EBC25070474FEAC3707C
:1043A0007047130A5FEADC1008BF7047F6E79CEA23
:1043B000026F04D010EA5C0F08BF0020704710B5F0
:1043C000FFF713FF40DFF63E81F00040704700002A
:1043D00000000000000000000000000000000000DD
:1043E00000F8000000000000003330000000001062
:1043F0000C06100C0600000000000000000040C089
:104400007840C0784000043F04043F04040000707A
:1044100088FC08300000001820FF211E0000F00872
:10442000F000E018000000211C031E211E0000F017
:104430000888700000001E2123241927211010165F
:104440000E0000000000000000000000000000005E
:1044500000E01804020000000007182040000002DD
:104460000418E00000000040201807000000404051
:1044700080F0804040000202010F010202000000B3
:1044800000F0000000000101011F01010100000017
:1044900000000000000080B070000000000000007C
:1044A0000000000000000001010101010101000005
:1044B000000000000000003030000000000000009C
:1044C000000080601804006018060100000000E091
:1044D00010080810E000000F102020100F0000103E
:1044E00010F8000000000020203F20200000007095
:1044F000080808887000003028242221300000308D
:104500000888884830000018202020110E00000084
:10451000C02010F8000000070424243F240000F805
:104520000888880808000019212020110E0000E0EA
:10453000108888180000000F112020110E0000388C
:104540000808C83808000000003F000000000070A4
:10455000880808887000001C222121221C0000E02D
:1045600010080810E0000000312222110F000000A6
:1045700000C0C0000000000000303000000000005B
:1045800000800000000000008060000000000000CB
:104590008040201008000001020408102000404064
:1045A00040404040400004040404040404000008A7
:1045B000102040800000002010080402010000705C
:1045C00048080808F0000000003036010000C03044
:1045D000C828E810E0000718272423140B00000067
:1045E000C038E0000000203C23020227382008F8F1
:1045F000888888700000203F202020110E00C030E5
:10460000080808083800071820202010080008F8BB
:1046100008080810E000203F202020100F0008F8B4
:104620008888E8081000203F20202320180008F880
:104630008888E8081000203F200003000000C030F8
:1046400008080838000007182020221E020008F879
:1046500008000008F808203F210101213F20000840
:1046600008F8080800000020203F2020000000007B
:104670000808F8080800C08080807F00000008F863
:1046800088C028180800203F20012638200008F89C
:10469000080000000000203F20202020300008F803
:1046A000F800F8F80800203F003F003F200008F81D
:1046B00030C00008F808203F200007183F00E01035
:1046C00008080810E0000F10202020100F0008F844
:1046D00008080808F000203F210101010000E01057
:1046E00008080810E0000F18242438504F0008F87C
:1046F000888888887000203F2000030C30200070DC
:104700008808080838000038202121221C001808D9
:1047100008F8080818000000203F2000000008F8F2
:1047200008000008F808001F202020201F0008783B
:10473000880000C83808000007380E010000F8089B
:1047400000F80008F800033C0700073C03000818C5
:1047500068808068180820302C03032C302008382B
:10476000C800C83808000000203F200000001008E2
:104770000808C8380800203826212020180000002A
:1047800000FE020202000000007F40404000000CDA
:1047900030C000000000000000010638C000000228
:1047A0000202FE000000004040407F0000000000C8
:1047B00004020202040000000000000000000000EB
:1047C00000000000000080808080808080800002E7
:1047D00002040000000000000000000000000000D3
:1047E0008080808000000019242222223F2008F8C7
:1047F000008080000000003F112020110E0000000A
:10480000008080800000000E112020201100000098
:1048100000808088F800000E112020103F2000004A
:10482000808080800000001F22222222130000804E
:1048300080F0888888180020203F20200000000099
:10484000808080808000006B94949493600008F8CE
:10485000008080800000203F210000203F20008059
:104860009898000000000020203F20200000000059
:1048700000809898000000C08080807F000008F8C9
:10488000000080808000203F24022D30200000089E
:1048900008F8000000000020203F20200000808059
:1048A000808080808000203F20003F20003F80806B
:1048B000008080800000203F210000203F20000079
:1048C000808080800000001F202020201F0080802A
:1048D00000808000000080FFA12020110E00000059
:1048E000008080808000000E112020A0FF8080804A
:1048F00080008080800020203F21200001000000F7
:1049000080808080800000332424242419000080CB
:1049100080E0808000000000001F202000008080D8
:10492000000000808000001F202020103F20808099
:1049300080000080808000010E3008060100808029
:104940000080008080800F300C030C300F0000804E
:104950008000808080000020312E0E312000808079
:1049600080000080808080818E70180601000080A9
:104970008080808080000021302C222130000000C7
:104980000000807C020200000000003F4040000068
:104990000000FF00000000000000FF000000000217
:1049A000027C800000000040403F00000000000644
:1049B00001010202040400000000000000000000E9
:1049C000E049000800000020C00000006C01000861
:1049D000A04A0008C0000020103200008801000832
:1049E0000000000000A24A040000000000000000D7
:1049F000010203040607080900000000000000008F
:104A000000000000000000000000000000000000A6
:104A10000000000000000000020406080000000082
:104A20000102030401020304060708090000000054
:104A30000000000000000000000000000000000076
:104A40000000000000000000000000000000000066
:104A50000000000000000000000000000000000056
:104A60000000000000000000000000000000000046
:104A70000000000000000000000000000000000036
:104A80000000000000000000000000000000000026
:104A90000000000000000000AAAAAAAA000000006E
:040000050800027578
:00000001FF
